:100000000C94DC000C9485040C945E040C940401A4
:100010000C9404010C9404010C94AC040C940401A1
:100020000C9404010C9404010C9404010C9404013C
:100030000C9404010C9404010C9404010C9404012C
:100040000C9414040C9404010C94E2020C94BC0271
:100050000C9404010C9404010C9404010C9404010C
:100060000C9491050C94040100000000240027006A
:100070002A005B4248313735305D204552524F529D
:100080003A20756E646566696E6564206572726F8C
:1000900072005B4248313735305D204552524F5235
:1000A0003A206F74686572206572726F72005B42ED
:1000B00048313735305D204552524F523A207265F3
:1000C000636569766564204E41434B206F6E2074F2
:1000D00072616E736D6974206F6620646174610073
:1000E0005B4248313735305D204552524F523A20FD
:1000F0007265636569766564204E41434B206F6E7F
:10010000207472616E736D6974206F66206164641F
:1001100072657373005B4248313735305D2045525C
:10012000524F523A20746F6F206C6F6E6720666F6B
:1001300072207472616E736D697420627566666593
:1001400072005B4248313735305D20446576696323
:1001500065206973206E6F7420636F6E66696775C2
:10016000726564210000000000250028002B0000BB
:1001700000000023002600290004040404040404F1
:100180000402020202020203030303030301020446
:100190000810204080010204081020010204081009
:1001A0002000000008000201000003040700000016
:1001B000000000000000E80F11241FBECFEFD8E0C0
:1001C000DEBFCDBF12E0A0E0B1E0E2ECFBE202C096
:1001D00005900D92A434B107D9F724E0A4E4B2E06D
:1001E00001C01D92A133B207E1F710E0CCEDD0E0E1
:1001F00004C02197FE010E943313CB3DD107C9F7FC
:100200000E9418090C94DF150C940000FC01538D1A
:10021000448D252F30E0842F90E0821B930B5417E0
:1002200010F0CF96089501970895FC01918D828D6D
:10023000981761F0828DDF01A80FB11D5D968C913A
:10024000928D9F5F9F73928F90E008958FEF9FEF45
:100250000895FC01918D828D981731F0828DE80F01
:10026000F11D858D90E008958FEF9FEF0895FC01BB
:10027000918D228D892F90E0805C9F4F821B910988
:100280008F73992708958BE193E00E94370121E055
:10029000892B09F420E0822F0895FC01848DDF0171
:1002A000A80FB11DA35ABF4F2C91848D90E00196E9
:1002B0008F739927848FA689B7892C93A089B189D8
:1002C0008C9180648C93938D848D981306C00288E2
:1002D000F389E02D80818F7D80830895EF92FF92D6
:1002E0000F931F93CF93DF93EC0181E0888F9B8D59
:1002F0008C8D981305C0E889F989808185FD24C01B
:10030000F62E0B8D10E00F5F1F4F0F731127E02E9D
:100310008C8DE8120CC00FB607FCFACFE889F9897A
:10032000808185FFF5CFCE010E944D01F1CF8B8DED
:10033000FE01E80FF11DE35AFF4FF0820B8FEA89AF
:10034000FB898081806207C0EE89FF896083E8892C
:10035000F98980818064808381E090E0DF91CF9192
:100360001F910F91FF90EF900895CF93DF93EC01D1
:10037000888D8823C9F0EA89FB89808185FD05C0C5
:10038000A889B9898C9186FD0FC00FB607FCF5CFFF
:10039000808185FFF2CFA889B9898C9185FFEDCF47
:1003A000CE010E944D01E7CFDF91CF91089580E00B
:1003B00090E0892B29F00E94430181110C940000E8
:1003C000089508950895CF93DF931F92CDB7DEB7B8
:1003D0006983DC01ED91FC910280F381E02D41E025
:1003E00050E0BE016F5F7F4F09950F90DF91CF9175
:1003F000089585ED8093BC008091BC0084FDFCCF06
:100400001092F60208954091A202262F30E0240FA8
:10041000311D21323105DCF42091F6022430C9F47B
:10042000FC0180E090E0861758F43091A2022191FF
:10043000DC01A058BD4FA30FB11D2C930196F3CF43
:100440008091A202680F6093A20280E0089581E08B
:10045000089582E008950895E09164028091650214
:10046000E81730F4F0E0EC5BFD4F808190E00895F8
:100470008FEF9FEF08959091640280916502981725
:1004800050F4E92FF0E0EC5BFD4F208130E09F5FFE
:100490009093640202C02FEF3FEFC901089580914D
:1004A000650290E020916402821B91090895CF9229
:1004B000DF92EF92FF920F931F93CF93DF937C0114
:1004C000262F972F8A018091F702882391F0C62F5B
:1004D000D72F6E01C40ED51ECC15DD0571F06991C4
:1004E000D701ED91FC910190F081E02DC7010995B4
:1004F000F3CF642F822F0E940302C801DF91CF91B6
:100500001F910F91FF90EF90DF90CF900895CF93C0
:10051000DF931F92CDB7DEB769832091F7022223C4
:10052000D1F020911A03203240F021E030E0FC01AC
:100530003383228380E090E015C08091F802E82F99
:10054000F0E0E750FD4F998190838F5F8093F80230
:1005500080931A0305C061E0CE0101960E94030258
:1005600081E090E00F90DF91CF910895089580E0B1
:1005700090E008950E9439131F920F920FB60F92C8
:1005800011242F933F934F935F936F937F938F9398
:100590009F93AF93BF93EF93FF938BE193E00E9400
:1005A0004D01FF91EF91BF91AF919F918F917F91FD
:1005B0006F915F914F913F912F910F900FBE0F90D0
:1005C0001F9018951F920F920FB60F9211242F9320
:1005D0008F939F93EF93FF93E0912B03F0912C0364
:1005E0008081E0913103F091320382FD12C090814D
:1005F000809134038F5F8F7320913503821751F000
:10060000E0913403F0E0E55EFC4F958F8093340376
:1006100001C08081FF91EF919F918F912F910F9059
:100620000FBE0F901F901895833081F028F4813011
:1006300099F08230A1F008958730A9F08830B9F0A0
:100640008430D1F4809180008F7D03C08091800040
:100650008F7780938000089584B58F7702C084B52A
:100660008F7D84BD08958091B0008F7703C0809105
:10067000B0008F7D8093B00008951F93CF93DF93D8
:10068000282F30E0F901EF55FE4F8491F901E3572F
:10069000FE4FD491F901E758FE4FC491CC23C9F025
:1006A000162F81110E941403EC2FF0E0EE0FFF1FB4
:1006B000EB59FE4FA591B4918FB7F894111105C075
:1006C0009C91ED2FE095E92302C0EC91ED2BEC938A
:1006D0008FBFDF91CF911F910895CF93DF9390E06B
:1006E000FC01E357FE4F2491FC01E758FE4F849133
:1006F000882361F190E0880F991FFC01E859FF4FB2
:10070000C591D491FC01EB59FE4FA591B4916111B3
:1007100009C09FB7F8948881209582238883EC9143
:100720002E230BC0623061F49FB7F8943881822F7A
:10073000809583238883EC912E2B2C939FBF06C03A
:100740008FB7F894E8812E2B28838FBFDF91CF914C
:1007500008953FB7F8948091CC029091CD02A0917A
:10076000CE02B091CF0226B5A89B05C02F3F19F04D
:100770000196A11DB11D3FBFBA2FA92F982F882721
:10078000820F911DA11DB11DBC01CD0142E0660F7C
:10079000771F881F991F4A95D1F708958F929F92CE
:1007A000AF92BF92CF92DF92EF92FF926B017C01EA
:1007B0000E94A9034B015C01C114D104E104F104BE
:1007C000F1F00E94A903DC01CB0188199909AA095B
:1007D000BB09883E9340A105B10570F321E0C21A20
:1007E000D108E108F10888EE880E83E0981EA11C6C
:1007F000B11CC114D104E104F10419F7DDCFFF905D
:10080000EF90DF90CF90BF90AF909F908F90089522
:100810002FB7F8946091C8027091C9028091CA0202
:100820009091CB022FBF08951F920F920FB60F9297
:1008300011242F933F938F939F93AF93BF938091F6
:10084000C8029091C902A091CA02B091CB02309126
:10085000C70223E0230F2D3720F40196A11DB11DFF
:1008600005C026E8230F0296A11DB11D2093C702E3
:100870008093C8029093C902A093CA02B093CB029E
:100880008091CC029091CD02A091CE02B091CF0286
:100890000196A11DB11D8093CC029093CD02A0932F
:1008A000CE02B093CF02BF91AF919F918F913F91B4
:1008B0002F910F900FBE0F901F9018951F920F92BF
:1008C0000FB60F9211242F933F934F935F936F9323
:1008D0007F938F939F93AF93BF93EF93FF93E09199
:1008E0000201F09103010995FF91EF91BF91AF9142
:1008F0009F918F917F916F915F914F913F912F9138
:100900000F900FBE0F901F9018951F920F920FB669
:100910000F9211242F933F934F935F936F937F9385
:100920008F939F93AF93BF93EF93FF93E091000159
:10093000F09101010995FF91EF91BF91AF919F91C6
:100940008F917F916F915F914F913F912F910F9078
:100950000FBE0F901F9018951F920F920FB60F9217
:1009600011248F930FB6F894A89580916000886148
:1009700080936000109260000FBE8F910F900FBEA9
:100980000F901F901895EF92FF921F93CF93DF93D4
:100990001F92CDB7DEB77C01162F60E0FC01808985
:1009A00049830E943D03F701948585859CBD8DBDDB
:1009B0001EBD000049810DB407FEFDCF8EB54EBDB2
:1009C00000000DB407FEFDCF1EB561E0F701808980
:1009D0000E943D03812F0F90DF91CF911F91FF90D7
:1009E000EF900895CF93DF93EC0140E063E10E9424
:1009F000C304282F30E08A8D9B8DA901481B590B19
:100A0000CA01DF91CF9108950F931F93CF93DF9386
:100A1000EC01E881F9810084F185E02D0995892BAD
:100A2000A1F040E06DE0CE010E94C304082F40E039
:100A300060E0CE010E94C304182F402F6DE8CE0164
:100A40000E94C304812F90E002C08FEF9FEFDF91DF
:100A5000CF911F910F910895CF93DF93EC01E8811F
:100A6000F9810084F185E02D0995892B61F08A8D4B
:100A70009B8D01969B8F8A8F40E060E0CE010E94A3
:100A8000C30490E002C08FEF9FEFDF91CF910895F4
:100A90008F929F92AF92BF92CF92DF92FF920F936D
:100AA0001F93CF93DF931F92CDB7DEB76C01B62EA5
:100AB0004A0140E062E279830E94C304F82E90E08C
:100AC0009C01280D391D79812F3F310531F028F027
:100AD0002FEF30E04901881A990A0B2D172F580182
:100AE000A80CB91C0A151B0541F0F80141918F01B2
:100AF00060E8C6010E94C304F5CF482D4F0D62EA9D
:100B0000C6010E94C304C4010F90DF91CF911F91D1
:100B10000F91FF90DF90CF90BF90AF909F908F90FC
:100B200008951F920F920FB60F9211242F933F93A7
:100B30004F935F936F937F938F939F93AF93BF93E5
:100B4000EF93FF938091B900887F803609F49CC0B1
:100B500068F5883209F45BC090F4803109F454C020
:100B600038F4882309F4F6C0883009F44DC0F6C083
:100B7000883109F44CC0803209F45DC0EFC0803484
:100B800009F468C048F4803309F455C0883309F08B
:100B9000E5C08093F402D8C0803509F44FC0883591
:100BA00009F45DC0883409F0D9C0D6C0883909F489
:100BB000C7C0A8F4883709F467C038F4883609F448
:100BC00063C0803709F460C0C9C0883809F4B8C070
:100BD000803909F45FC0803809F0C0C05BC0803B39
:100BE00009F486C038F4803A09F466C0883A09F4FA
:100BF0007FC0B4C0803C09F4A7C0883C09F4A4C0FD
:100C0000883B09F48AC0AAC08091D10210C090919B
:100C1000F3028091F202981770F5E091F30281E0FF
:100C20008E0F8093F302F0E0EE52FD4F80818093AF
:100C3000BB0085EC86C08093F4028EC0E091F30285
:100C400081E08E0F8093F3028091BB00F0E0EE52C2
:100C5000FD4F80839091F3028091F2026EC0E0918B
:100C6000F30281E08E0F8093F3028091BB00F0E0ED
:100C7000EE52FD4F80838091F50281116DC081E0BD
:100C80008093D00284EA61C083E08093F6021092E0
:100C9000C602CFCF8091C602803208F051C0E091E9
:100CA000C60281E08E0F8093C6028091BB00F0E007
:100CB000EA55FD4F8083BDCF85EC8093BC00109238
:100CC000F6028091C602803230F4E091C602F0E074
:100CD000EA55FD4F10826091C60270E0E091A402D7
:100CE000F091A50286EA92E009951092C60236C0FC
:100CF00084E08093F6021092A3021092A202E09187
:100D0000A002F091A10209958091A202811105C073
:100D100081E08093A20210928002E091A30281E020
:100D20008E0F8093A302F0E0E058FD4F8081809306
:100D3000BB009091A3028091A202981708F479CF8A
:100D400085E88093BC000AC085EC8093BC001092BB
:100D5000F60204C01092F4020E94F901FF91EF9193
:100D6000BF91AF919F918F917F916F915F914F91C3
:100D70003F912F910F900FBE0F901F901895CF921B
:100D8000DF92EF92FF920F931F93CF93DF936C014B
:100D90007A018B01C0E0D0E0CE15DF0589F0D801E3
:100DA0006D918D01D601ED91FC910190F081E02DC6
:100DB000C6010995892B11F47E0102C02196ECCF62
:100DC000C701DF91CF911F910F91FF90EF90DF90BE
:100DD000CF900895EBE1F3E0A089B18982E08C9394
:100DE000A485B5851C92A685B7858FEC8C93108E53
:100DF000A489B58986E08C93A289B3898C9180619E
:100E00008C93A289B3898C9188608C93A289B389D1
:100E10008C9180688C930288F389E02D80818F7D8E
:100E200080830895382F20911A039091190321325D
:100E300008F049C08091F6028111FCCF42E0409356
:100E4000F6023093F5023FEF3093F4021092F30272
:100E50002093F202A9EFB2E042ED52E0FA013E2FF8
:100E6000341B321718F43D913193F9CF1092D1020F
:100E70002091D102990F922B9093D1029091D002A0
:100E8000913061F41092D0029091D1029093BB0006
:100E90009091BC0093FDF8CF95EC01C095EE909336
:100EA000BC009091F6029230E1F39091F4029F3FE2
:100EB00079F08091F402803241F08091F402803325
:100EC00031F084E005C081E003C082E001C083E02E
:100ED0001092F80210921A031092F7020895CF931D
:100EE000DF93E0EBF1E08491ECE9F1E0D491E8E804
:100EF000F1E0C491CC2391F081110E941403EC2FF6
:100F0000F0E0EE0FFF1FE159FE4FA591B491EC9177
:100F1000ED2381E090E021F480E002C080E090E0E9
:100F2000DF91CF910895DC01ED91FC910190F0816A
:100F3000E02D09946115710579F0FB010190002005
:100F4000E9F73197AF01461B570BDC01ED91FC919E
:100F50000280F381E02D099480E090E008950F93E2
:100F60001F93CF93DF938C01C0E0D0E0F801EC0F2A
:100F7000FD1F6491662371F0E0911B03F0911C0347
:100F80000190F081E02D8BE193E00995892B11F020
:100F90002196ECCF69E471E08BE193E00E949A071F
:100FA0008C0F9D1FDF91CF911F910F9108954F924C
:100FB0005F926F927F92EF92FF920F931F93CF9366
:100FC000DF93CDB7DEB7A1970FB6F894DEBF0FBEA3
:100FD000CDBF7C01FA01CB0119A2223008F42AE02E
:100FE0008E010F5D1F4F422E512C612C712CBF01C1
:100FF000A30192010E948911F901CA01015011094E
:101000006A3014F4605D01C0695CD8016C93232BD5
:10101000242B252B61F7B801C7010E949A07A196DE
:101020000FB6F894DEBF0FBECDBFDF91CF911F91F9
:101030000F91FF90EF907F906F905F904F90089589
:101040004F925F926F927F928F929F92AF92BF92D8
:10105000CF92DF92EF92FF92CF93DF93EC016A0180
:101060007B01B22E9A01AB01C701B6010E942E137B
:10107000882319F068E372E027C026013701E8945D
:1010800077F82FEF3FEF4FE75FE7C301B2010E9410
:101090002E1381110DC02FEF3FEF4FE75FE7C30124
:1010A000B2010E94651018161CF46CE372E00CC0CB
:1010B0002FEF3FEF4FE75FE4C701B6010E9429130E
:1010C00018169CF460E472E0CE01DF91CF91FF909E
:1010D000EF90DF90CF90BF90AF909F908F907F90D8
:1010E0006F905F904F900C949A072FEF3FEF4FE770
:1010F0005FECC701B6010E94651087FDE3CF20E0D9
:1011000030E0A901C701B6010E94651087FF0AC03F
:101110006DE2CE010E9493074C01F7FAF094F7F8C4
:10112000F09402C0812C912CA12C60E070E080E052
:101130009FE3AB1441F020E030E040E251E40E9434
:101140008812A394F6CF9B01AC01C701B6010E949F
:101150001C122B013C010E94FA126B017C010E94BF
:101160006A109B01AC01C301B2010E941B122B014A
:101170003C012AE0B701A601CE010E94D7077C01FD
:10118000E80CF91CBB2031F06EE2CE010E949307FF
:10119000E80EF91EDB2CDD2029F120E030E040E2F2
:1011A00051E4C301B2010E94CB102B013C010E940B
:1011B000FA124B01A12CB12C2AE0B501A401CE01F9
:1011C0000E94D707E80EF91EC501B4010E946A10FB
:1011D0009B01AC01C301B2010E941B122B013C0117
:1011E000DA94D9CFC701DF91CF91FF90EF90DF90D4
:1011F000CF90BF90AF909F908F907F906F905F90B7
:101200004F9008950F931F93CF93DF93EC010E94AB
:101210009A078C0169E471E0CE010E949A07800F61
:10122000911FDF91CF911F910F9108950C949A0710
:10123000CF93DF93CDB7DEB72A970FB6F894DEBF12
:101240000FBECDBF789484B5826084BD84B58160C3
:1012500084BD85B5826085BD85B5816085BD809181
:101260006E00816080936E001092810080918100F9
:1012700082608093810080918100816080938100F1
:10128000809180008160809380008091B1008460B3
:101290008093B1008091B00081608093B000809114
:1012A0007A00846080937A0080917A0082608093D3
:1012B0007A0080917A00816080937A0080917A0030
:1012C000806880937A001092C1001092FC03109203
:1012D000FD031092FE031092FF031092BA031092C6
:1012E000BB031092BC031092BD030E9408046B0163
:1012F0007C014B015C0128EB820E2BE0921EA11CAD
:10130000B11C0E9408046C157D058E059F0528F010
:1013100086169706A806B906A0F78BE193E090938E
:10132000FB038093FA030E94EA060E94080460937C
:10133000BA037093BB038093BC039093BD036AE32D
:1013400071E08091FA039091FB030E9416090E94BC
:1013500008046B017C014B015C013AE0830E911C97
:10136000A11CB11C0E9408046C157D058E059F050B
:1013700028F086169706A806B906A0F781E08093A4
:10138000CE0310926402109265021092F80210923D
:101390001A031092F6028093F5021092D00261E0D7
:1013A00082E10E943D0361E083E10E943D03809160
:1013B000B9008E7F8093B9008091B9008D7F8093B2
:1013C000B90088E48093B80085E48093BC000E9453
:1013D000EA066CE471E08BE193E00E94020961E0AF
:1013E000809110040E946D0361E0809110040E94BE
:1013F0003D0380911204909113048F3FAFEF9A0741
:10140000C9F061E00E946D0360E0809112040E94C7
:101410003D036AE070E080E090E00E94CE0361E06E
:10142000809112040E943D036AE070E080E090E049
:101430000E94CE031FB7F89480916602811127C0E5
:10144000E3E8F1E08491E7E9F1E09491E82FF0E03E
:10145000EE0FFF1FE859FF4FA591B491EC91E923DE
:1014600021F461E08AE00E943D0361E08AE00E948D
:101470006D038CB580618CBD8CB580648CBD61E0E2
:101480008DE00E946D0361E08BE00E946D0380910E
:1014900066028F5F809366021FBF40E062E480E0D7
:1014A00094E00E94C304823109F0A9C040E861E8D9
:1014B00080E094E00E94C30480EC9AECA9E8B6E3D3
:1014C0008093160490931704A0931804B093190402
:1014D00044EE66E880E094E00E94C30440EC67E8D4
:1014E00080E094E00E94C30440E068E880E094E07B
:1014F0000E94C30440E06EE880E094E00E94C304D0
:1015000040E06FE880E094E00E94C30440E06CE0BB
:1015100080E094E00E94C304482F43606CE880E0C0
:1015200094E00E94C30444E066EA80E094E00E94F4
:10153000C3044FE869E880E094E00E94C30441E8F6
:1015400061E880E094E00E94C30468E571E08BE10B
:1015500093E00E9402096BE671E08BE193E00E9448
:1015600016096EED71E08BE193E00E94160900E030
:1015700010E0FEE8CF2EF1E0DF2E9E012F5F3F4FFF
:1015800079011F930F93DF92CF92FF92EF920E9407
:101590003E13B7018BE193E00E9416090F5F1F4FC6
:1015A0000F900F900F900F900F900F90003111053A
:1015B00041F700E010E072E9C72E71E0D72E9924C0
:1015C0009394E9E9AE2EE1E0BE2E802E802F8F703D
:1015D000E9F41F92802F807F8F93DF92CF92FF924A
:1015E000EF920E943E13B7018BE193E00E9416092F
:1015F0000F900F900F900F900F900F9007C062E226
:1016000072E08BE193E00E940209FFCF03301105E5
:1016100048F19092F702809219031092F80210920A
:101620001A0381E00E941207811114C01F930F93C7
:10163000BF92AF92FF92EF920E943E13B7018BE1EF
:1016400093E00E9416090F900F900F900F900F904B
:101650000F900EC0843019F46FE971E005C063EAA1
:1016600071E002C06EED71E08BE193E00E9416091B
:101670000F5F1F4F0837110509F0A7CF6CE871E025
:101680008BE193E00E94020980912C0491E09093F9
:10169000F702809319031092F80210921A036091D6
:1016A0002E0480E294E00E94870281E00E941207EB
:1016B000182F6AE070E080E090E00E94CE031230C4
:1016C000E9F048F4112361F0113021F585E191E052
:1016D0000E94AF0713C01330A9F01430B9F01AC03C
:1016E00080E190E090932F0480932E04812C60EC95
:1016F000962E69E7A62E64ECB62E14C280EE90E01A
:101700000E94AF078EEA90E00E94AF0782E990E066
:101710000E94AF0782E790E00E94AF07E7CFA1E009
:10172000CA1AD10809F49FC30E946F07892BB9F325
:101730000E94A9032B013C0140E9C42EDD24D3946F
:101740000E946F07019709F47EC30E94A903DC0180
:10175000CB0184199509A609B7098997A105B10597
:1017600038F0EF2DF0E0E959FD4F8085812B80871F
:10177000812F90E095958795009709F46AC3182FFB
:10178000015009F05BC360916F0270E080E090E06F
:101790000E946C102B013C016091700270E080E0AF
:1017A00090E00E946C102DEC3CEC4CEC5DE30E9450
:1017B000CB109B01AC01C301B2010E941C126093CB
:1017C0006702709368028093690290936A02109195
:1017D0007102612F6F7770E080E090E00E946C10E2
:1017E0002B013C016091720270E080E090E00E9469
:1017F0006C102DEC3CEC4CEC5DE30E94CB109B019B
:10180000AC01C301B2010E941C1217FFD8C3DC0156
:10181000CB01B05880936B0290936C02A0936D0241
:10182000B0936E0260912E0470912F0461157105C2
:1018300009F02AC382E491E00E94AF07412C512CA9
:101840006BEB71E08BE193E00E9416096CEC71E0A8
:101850008BE193E00E941609409174025091750249
:10186000609176027091770222E08BE193E00E9412
:1018700020086DED71E08BE193E00E94160962EEA5
:1018800071E08BE193E00E941609612C712C2AE033
:10189000B301A2018BE193E00E94D7076AEE71E0E9
:1018A0008BE193E00E94160961EF71E08BE193E018
:1018B0000E94160940916B0250916C0260916D027A
:1018C00070916E0222E08BE193E00E9420086EEDA1
:1018D00071E08BE193E00E9416092AE040E050E0BD
:1018E000BA018BE193E00E94D70769E471E08BE1D4
:1018F00093E00E949A070AE010E041E861E880E086
:1019000094E00E94C30410921D0410921C0440E055
:101910006DE180E094E00E94C304482F4E7F6DE9A2
:1019200080E094E00E94C30440E06DE880E094E031
:101930000E94C30440E062EA80E094E00E94C30495
:101940006FEF71E080E094E00E941609409174020C
:1019500050917502609176027091770222E080E0EA
:1019600094E00E9420086FE072E080E094E00E9422
:10197000160962EE71E080E094E00E9416092AE008
:10198000B301A20180E094E00E94D70762E172E017
:1019900080E094E00E94160966E172E080E094E045
:1019A0000E94160940916B0250916C0260916D0289
:1019B00070916E0222E080E094E00E9420086DE1C8
:1019C00072E080E094E00E94160960E272E080E03C
:1019D00094E00E94160943E861E880E094E00E94E8
:1019E000C30440E062E180E094E00E94C30483FF0E
:1019F000F8CF48E062E980E094E00E94C30401501F
:101A0000110909F07ACF8091B10081FFD6C284E03C
:101A10009091B10090FD82609091B1009091B100E1
:101A20009B7F9093B1009091B1009D7F9093B10006
:101A30009091B1009E7F9093B1009091640090646A
:101A40009093640090917A009F7790937A009091A0
:101A5000640091609093640090916400986090930A
:101A6000640090916400906290936400909164008F
:101A700094609093640090916400926090936400ED
:101A80009091640090689093640029E298E10FB609
:101A9000F894A895909360000FBE209360009091F9
:101AA000600090649093600093B7917F93BFF89427
:101AB00093B7916093BF7894889593B79E7F93BFB7
:101AC0007894909164009E7F9093640090917A0046
:101AD000906890937A0081FF05C08091B100846086
:101AE0008093B100809164008F7B8093640080912B
:101AF0006400877F80936400809164008F7D809371
:101B00006400809164008B7F809364008091640006
:101B10008D7F80936400809164008F778093640050
:101B20000E94D7010E940804672B682B692B41F49F
:101B30000E940804623071058105910508F415C101
:101B40000E94080460937C0270937D0280937E0261
:101B500090937F02009178021091790220917A028D
:101B600030917B02601771078207930740F46093FE
:101B700078027093790280937A0290937B020091AD
:101B800078021091790220917A0230917B026B01E8
:101B90007C01C01AD10AE20AF30A970186010A3FC2
:101BA00011052105310508F4E0C0609378027093B7
:101BB000790280937A0290937B0284EF91E0A0E017
:101BC000B0E08093C6039093C703A093C803B0937B
:101BD000C9031092CA031092CB031092CC03109247
:101BE000CD038091BE039091BF03A091C003B0913B
:101BF000C1038093C2039093C303A093C403B09323
:101C0000C5030E9408046093BE037093BF038093D2
:101C1000C0039093C1030E9408046093BA037093B9
:101C2000BB038093BC039093BD030E9408046B0127
:101C30007C0167EA71E08091FA039091FB030E94B6
:101C400016092AE041E050E060E070E08091FA037C
:101C50009091FB030E94D7076EEA71E08091FA032E
:101C60009091FB030E9416092AE0B701A60180911A
:101C7000FA039091FB030E94D70760EB71E080911B
:101C8000FA039091FB030E9416098091BE03909184
:101C9000BF03A091C003B091C103B701A601481BC7
:101CA000590B6A0B7B0B2AE08091FA039091FB039E
:101CB0000E94D70760EB71E08091FA039091FB03DB
:101CC0000E9416094091BE035091BF036091C0036A
:101CD0007091C1038091C2039091C303A091C4038A
:101CE000B091C503481B590B6A0B7B0B2AE080910E
:101CF000FA039091FB030E94D70762EB71E0809199
:101D0000FA039091FB030E9416090E940804AB019C
:101D1000BC012AE08091FA039091FB030E94D7074F
:101D200064EB71E08091FA039091FB030E94020939
:101D30000E9408042B013C016B017C0195E0C90E57
:101D4000D11CE11CF11C0E94080464157505860570
:101D5000970508F081C00E9408046093BE03709349
:101D6000BF038093C0039093C10380E480937C0001
:101D700080917A00806480937A0080917A0086FD59
:101D8000FCCF209178008091790030E0382BC90198
:101D9000330FAA0BBB0B9C01AD012F5F33404109F0
:101DA0005109A4E6B0E00E94CA112DEC3DEF4FEFBF
:101DB0005FEF0E94AB11CA01B9010E946C106093E1
:101DC000740270937502809376029093770210925A
:101DD0006F021092700210927102109272021092B1
:101DE000730261E08FE00E946D0360E08FE00E946B
:101DF0003D0362E170E080E090E00E94CE0360E08D
:101E00008FE00E946D038BE990E00197F1F700E904
:101E100011E00E946F07892B21F401501109C9F7C5
:101E200022C000E911E00E946F07019721F40150E0
:101E30001109C9F718C008E210E8F12C50E9C52EC5
:101E4000DD24D39471CCB1E0CB1AD10809F078CC61
:101E50000AC0F39410E894CCC616D706E806F90633
:101E600008F071CF78CF8092670290926802A092BA
:101E70006902B0926A0280926B0290926C02A09208
:101E80006D02B0926E02CECC80912C0491E09093C2
:101E9000F702809319031092F80210921A0380E25D
:101EA00094E00E94870281E00E94120780912E0434
:101EB00090912F04803291059CF0823291051CF0A4
:101EC0008332910569F4839729F468E170E080E03A
:101ED00090E004C064EB70E080E090E00E94CE03EC
:101EE00020912C048091F6028111FCCF81E0809337
:101EF000F6028093F5029FEF9093F4021092F302A2
:101F00008093F2028093D1029091D102822F880FA8
:101F1000892B8093D1028091D002813061F410929C
:101F2000D0028091D1028093BB008091BC0083FDE0
:101F3000F8CF85EC01C085EE8093BC008091F6025D
:101F40008130E1F38091F302823018F48091F30242
:101F500001C082E0A2EDB2E0E4E4F2E09E2F24E4CE
:101F6000C22E22E0D22E9C19981718F49D919193BD
:101F7000F5CF1092640280936502823069F480E2AA
:101F800094E00E943B02382E212C80E294E00E94D3
:101F90003B028229932902C08FEF9FEFBC0180E0B2
:101FA00090E00E946A102AE939E949E95FE30E945A
:101FB00088120E94FA122B0143CC80E029CD609355
:101FC0006B0270936C0280936D0290936E022ACC28
:101FD000EBE1F3E01382128288EE93E0A0E0B0E040
:101FE00084839583A683B78328E031E031832083FF
:101FF00025EC30E03587248724EC30E037872687CE
:1020000020EC30E0318B208B21EC30E0338B228BC5
:1020100022EC30E0358B248B26EC30E0378B268B9E
:10202000118E128E138E148EE8EBF3E01682178257
:1020300010861186128613861486158616861786D4
:10204000108A118A128A138A148A158AE0E0F4E051
:10205000138212822AE131E03183208320E5248734
:1020600021E0258720E334E0378726872AE030E027
:10207000318B208B29E030E0338B228B22E030E063
:10208000358B248B168A178A108E118E138E128E22
:10209000158E148E178E168E148215821682178254
:1020A000E0E2F4E01382128284839583A683B783EF
:1020B0008CE291E091838083ECE2F4E0138212825F
:1020C00083E290E09183808308950E94A71008F432
:1020D00081E00895E89409C097FB3EF490958095BF
:1020E000709561957F4F8F4F9F4F9923A9F0F92FDE
:1020F00096E9BB279395F695879577956795B7955C
:10210000F111F8CFFAF4BB0F11F460FF1BC06F5F41
:102110007F4F8F4F9F4F16C0882311F096E911C053
:10212000772321F09EE8872F762F05C0662371F074
:1021300096E8862F70E060E02AF09A95660F771F88
:10214000881FDAF7880F9695879597F90895990F64
:102150000008550FAA0BE0E8FEEF16161706E80771
:10216000F907C0F012161306E407F50798F0621B92
:10217000730B840B950B39F40A2661F0232B242B67
:10218000252B21F408950A2609F4A140A6958FEF86
:10219000811D811D08950E94DE100C944F110E9434
:1021A000411138F00E94481120F0952311F00C9451
:1021B00038110C943E1111240C9483110E9460116B
:1021C00070F3959FC1F3950F50E0551F629FF0018A
:1021D000729FBB27F00DB11D639FAA27F00DB11DA3
:1021E000AA1F649F6627B00DA11D661F829F22272C
:1021F000B00DA11D621F739FB00DA11D621F839FB3
:10220000A00D611D221F749F3327A00D611D231F88
:10221000849F600D211D822F762F6A2F11249F57D6
:1022200050409AF0F1F088234AF0EE0FFF1FBB1FD9
:10223000661F771F881F91505040A9F79E3F510598
:1022400080F00C9438110C9483115F3FE4F3983EB6
:10225000D4F3869577956795B795F795E7959F5F42
:10226000C1F7FE2B880F911D9695879597F90895D4
:1022700097F99F6780E870E060E008959FEF80EC39
:10228000089500240A9416161706180609060895DC
:1022900000240A9412161306140605060895092E42
:1022A0000394000C11F4882352F0BB0F40F4BF2BB1
:1022B00011F460FF04C06F5F7F4F8F4F9F4F0895F1
:1022C00057FD9058440F551F59F05F3F71F04795E7
:1022D000880F97FB991F61F09F3F79F087950895CC
:1022E000121613061406551FF2CF4695F1DF08C0EB
:1022F000161617061806991FF1CF86957105610508
:1023000008940895E894BB2766277727CB0197F9AF
:102310000895A1E21A2EAA1BBB1BFD010DC0AA1F26
:10232000BB1FEE1FFF1FA217B307E407F50720F03E
:10233000A21BB30BE40BF50B661F771F881F991FB9
:102340001A9469F760957095809590959B01AC0102
:10235000BD01CF010895052E97FB1EF400940E9445
:10236000C21157FD07D00E94891107FC03D04EF41B
:102370000C94C21150954095309521953F4F4F4F89
:102380005F4F089590958095709561957F4F8F4F21
:102390009F4F08950E940C12A59F900DB49F900D21
:1023A000A49F800D911D112408952F923F924F926A
:1023B0005F926F927F928F929F92AF92BF92CF92D5
:1023C000DF92EF92FF920F931F93CF93DF93CDB7DE
:1023D000DEB7CA1BDB0B0FB6F894DEBF0FBECDBF56
:1023E00009942A88398848885F846E847D848C8427
:1023F0009B84AA84B984C884DF80EE80FD800C8130
:102400001B81AA81B981CE0FD11D0FB6F894DEBF12
:102410000FBECDBFED010895A29FB001B39FC001D3
:10242000A39F700D811D1124911DB29F700D811D00
:102430001124911D08955058BB27AA270E943312DA
:102440000C944F110E94411138F00E94481120F065
:1024500039F49F3F19F426F40C943E110EF4E095E4
:10246000E7FB0C943811E92F0E94601158F3BA175A
:10247000620773078407950720F079F4A6F50C949A
:1024800082110EF4E0950B2EBA2FA02D0B01B9018D
:1024900090010C01CA01A0011124FF27591B99F0DA
:1024A000593F50F4503E68F11A16F040A22F232FE6
:1024B000342F4427585FF3CF469537952795A79536
:1024C000F0405395C9F77EF41F16BA0B620B730BDD
:1024D000840BBAF09150A1F0FF0FBB1F661F771F4E
:1024E000881FC2F70EC0BA0F621F731F841F48F403
:1024F000879577956795B795F7959E3F08F0B0CF8C
:102500009395880F08F09927EE0F97958795089572
:102510000E949C120C944F110E94481158F00E9486
:10252000411140F029F45F3F29F00C94381151110A
:102530000C9483110C943E110E94601168F399234E
:10254000B1F3552391F3951B550BBB27AA276217AF
:102550007307840738F09F5F5F4F220F331F441FBC
:10256000AA1FA9F335D00E2E3AF0E0E832D09150F0
:102570005040E695001CCAF72BD0FE2F29D0660FDD
:10258000771F881FBB1F261737074807AB07B0E820
:1025900009F0BB0B802DBF01FF2793585F4F3AF026
:1025A0009E3F510578F00C9438110C9483115F3FD5
:1025B000E4F3983ED4F3869577956795B795F795AC
:1025C0009F5FC9F7880F911D9695879597F9089594
:1025D000E1E0660F771F881FBB1F62177307840730
:1025E000BA0720F0621B730B840BBA0BEE1F88F73F
:1025F000E09508950E94681188F09F5798F0B92FD0
:102600009927B751B0F0E1F0660F771F881F991F27
:102610001AF0BA95C9F714C0B13091F00E94821136
:10262000B1E008950C948211672F782F8827B85F46
:1026300039F0B93FCCF3869577956795B395D9F77F
:102640003EF490958095709561957F4F8F4F9F4F89
:1026500008950E94A71008F48FEF08950E94A71014
:10266000880B990B0895EE0FFF1F0590F491E02D54
:10267000099481E090E0F8940C94DF15AEE0B0E0AE
:10268000E4E4F3E10C94E3110D891E8986E08C8368
:102690001A8309838FEF9FE79E838D83AE01475E88
:1026A0005F4F6F89788DCE0101960E9461132F8153
:1026B0003885F801E20FF31F10822E96E4E00C94A7
:1026C000FF11ACE0B0E0E7E6F3E10C94D5117C013A
:1026D0006B018A01FC0117821682838181FFBDC1D3
:1026E000CE0101964C01F7019381F60193FD85918E
:1026F00093FF81916F01882309F4ABC1853239F4CE
:1027000093FD859193FF81916F01853229F4B70183
:1027100090E00E944915E7CF512C312C20E0203267
:10272000A0F48B3269F030F4803259F0833269F4CE
:1027300020612CC08D3239F0803339F4216026C0FD
:102740002260246023C0286021C027FD27C030ED0F
:10275000380F3A3078F426FF06C0FAE05F9E300D5D
:102760001124532E13C08AE0389E300D1124332ECD
:1027700020620CC08E3221F426FD6BC1206406C09D
:102780008C3611F4206802C0883641F4F60193FDBE
:10279000859193FF81916F018111C1CF982F9F7D0A
:1027A0009554933028F40C5F1F4FFFE3F9830DC05D
:1027B000833631F0833771F0833509F05BC022C076
:1027C000F801808189830E5F1F4F44244394512C6C
:1027D000540115C03801F2E06F0E711CF801A080A1
:1027E000B18026FF03C0652D70E002C06FEF7FEF60
:1027F000C5012C870E943E152C0183012C852F7763
:10280000222E17C03801F2E06F0E711CF801A08073
:10281000B18026FF03C0652D70E002C06FEF7FEF2F
:10282000C5012C870E9433152C012C852068222E8F
:10283000830123FC1BC0832D90E048165906B0F499
:10284000B70180E290E00E9449153A94F4CFF50177
:1028500027FC859127FE81915F01B70190E00E94DE
:10286000491531103A94F1E04F1A510841145104BE
:1028700071F7E5C0843611F0893639F5F80127FF84
:1028800007C060817181828193810C5F1F4F08C0F6
:1028900060817181072E000C880B990B0E5F1F4F12
:1028A0002F76722E97FF09C090958095709561954F
:1028B0007F4F8F4F9F4F2068722E2AE030E0A40197
:1028C0000E948115A82EA81844C0853729F42F7EB0
:1028D000B22E2AE030E025C0F22FF97FBF2E8F36CE
:1028E000C1F018F4883579F0B4C0803719F0883712
:1028F00021F0AFC02F2F2061B22EB4FE0DC08B2D62
:102900008460B82E09C024FF0AC09F2F9660B92E9C
:1029100006C028E030E005C020E130E002C020E140
:1029200032E0F801B7FE07C0608171818281938136
:102930000C5F1F4F06C06081718180E090E00E5FE8
:102940001F4FA4010E948115A82EA818FB2DFF7708
:102950007F2E76FE0BC0372D3E7FA51450F474FEFB
:102960000AC072FC08C0372D3E7E05C0BA2C372D38
:1029700003C0BA2C01C0B52C34FF0DC0FE01EA0D16
:10298000F11D8081803311F4397E09C032FF06C009
:10299000B394B39404C0832F867809F0B39433FDC5
:1029A00013C030FF06C05A2CB31418F4530C5B1834
:1029B000B32CB31468F4B70180E290E03C870E9426
:1029C0004915B3943C85F5CFB31410F43B1801C0FE
:1029D000312C34FF12C0B70180E390E03C870E94A5
:1029E00049153C8532FF17C031FD03C088E790E0F0
:1029F00002C088E590E0B7010CC0832F867859F0BB
:102A000031FF02C08BE201C080E237FD8DE2B701E9
:102A100090E00E944915A51438F4B70180E390E0D6
:102A20000E9449155A94F7CFAA94F401EA0DF11DBA
:102A30008081B70190E00E944915A110F5CF3320A5
:102A400009F451CEB70180E290E00E9449153A9412
:102A5000F6CFF7018681978102C08FEF9FEF2C960A
:102A6000E2E10C94F111FC010590615070400110FD
:102A7000D8F7809590958E0F9F1F0895FC016150A7
:102A8000704001900110D8F7809590958E0F9F1F90
:102A900008950F931F93CF93DF93FB01238121FDB3
:102AA00003C08FEF9FEF28C022FF16C046815781D9
:102AB000248135814217530744F4A081B1819D01DF
:102AC0002F5F3F4F318320838C93268137812F5F87
:102AD0003F4F3783268310C0EB01092F182F008446
:102AE000F185E02D0995892BE1F68E819F81019674
:102AF0009F838E83812F902FDF91CF911F910F9114
:102B00000895FA01AA27283051F1203181F1E89483
:102B10006F936E7F6E5F7F4F8F4F9F4FAF4FB1E0D0
:102B20003ED0B4E03CD0670F781F891F9A1FA11DCB
:102B3000680F791F8A1F911DA11D6A0F711D811DCC
:102B4000911DA11D20D009F468943F912AE0269F91
:102B500011243019305D3193DEF6CF010895462FF0
:102B60004770405D4193B3E00FD0C9F7F6CF462FD1
:102B70004F70405D4A3318F0495D31FD405241933A
:102B800002D0A9F7EACFB4E0A695979587957795F7
:102B90006795BA95C9F700976105710508959B017E
:102BA000AC010A2E06945795479537952795BA9507
:102BB000C9F7620F731F841F951FA01D0895F89415
:022BC000FFCF45
:102BC200E101E101000000006E01BF060601B5014E
:102BD20037011501290100000000E3014805B70291
:102BE200E201F2042C0504050000000087025702EE
:102BF200B7022B024F023B022C02564D4450565F45
:102C0200317C315F564D4450560D0A004C6F526173
:102C12002053656E6465720069326364657465632E
:102C220074206578616D706C650A005363616E6E25
:102C3200696E6720616464726573732072616E6786
:102C42006520307830332D307837370A0A00253343
:102C520078000A253032783A002025303278002078
:102C6200585800202D2D00564D4450455F003A32F1
:102C72003A007C005F564D4450450053656E6469CE
:102C82006E67207061636B65743A20004D6F6973E3
:102C920074757265206C6576656C3B20002520207A
:102CA20020004C696768743A2000206C782020204C
:102CB2000054656D70657261747572653A2000200A
:102CC200202020204D6F6973747572653B200025AA
:102CD20020006C78200054656D703A20004320007B
:102CE20032005374617274696E67204C6F526120B6
:102CF2006661696C656421006E616E00696E6600D2
:042D02006F76660082
:107E0000112484B714BE81FFF0D085E080938100F7
:107E100082E08093C00088E18093C10086E0809377
:107E2000C20080E18093C4008EE0C9D0259A86E02C
:107E300020E33CEF91E0309385002093840096BBD3
:107E4000B09BFECF1D9AA8958150A9F7CC24DD24C4
:107E500088248394B5E0AB2EA1E19A2EF3E0BF2EE7
:107E6000A2D0813461F49FD0082FAFD0023811F036
:107E7000013811F484E001C083E08DD089C08234E0
:107E800011F484E103C0853419F485E0A6D080C0E4
:107E9000853579F488D0E82EFF2485D0082F10E0AE
:107EA000102F00270E291F29000F111F8ED06801E7
:107EB0006FC0863521F484E090D080E0DECF843638
:107EC00009F040C070D06FD0082F6DD080E0C81688
:107ED00080E7D80618F4F601B7BEE895C0E0D1E017
:107EE00062D089930C17E1F7F0E0CF16F0E7DF06D8
:107EF00018F0F601B7BEE89568D007B600FCFDCFD4
:107F0000A601A0E0B1E02C9130E011968C91119780
:107F100090E0982F8827822B932B1296FA010C0160
:107F200087BEE89511244E5F5F4FF1E0A038BF0790
:107F300051F7F601A7BEE89507B600FCFDCF97BE46
:107F4000E89526C08437B1F42ED02DD0F82E2BD052
:107F50003CD0F601EF2C8F010F5F1F4F84911BD097
:107F6000EA94F801C1F70894C11CD11CFA94CF0C13
:107F7000D11C0EC0853739F428D08EE10CD085E9AC
:107F80000AD08FE07ACF813511F488E018D01DD067
:107F900080E101D065CF982F8091C00085FFFCCF94
:107FA0009093C60008958091C00087FFFCCF809118
:107FB000C00084FD01C0A8958091C6000895E0E648
:107FC000F0E098E1908380830895EDDF803219F02E
:107FD00088E0F5DFFFCF84E1DECF1F93182FE3DFCA
:107FE0001150E9F7F2DF1F91089580E0E8DFEE27F6
:047FF000FF270994CA
:027FFE00040479
:0400000300007E007B
:00000001FF